{
  "contractName": "Marketplace",
  "abi": [
    {
      "anonymous": false,
      "inputs": [
        {
          "indexed": false,
          "internalType": "uint256",
          "name": "id",
          "type": "uint256"
        },
        {
          "indexed": false,
          "internalType": "string",
          "name": "name",
          "type": "string"
        },
        {
          "indexed": false,
          "internalType": "uint256",
          "name": "price",
          "type": "uint256"
        },
        {
          "indexed": false,
          "internalType": "address",
          "name": "seller",
          "type": "address"
        }
      ],
      "name": "ModelCreated",
      "type": "event"
    },
    {
      "anonymous": false,
      "inputs": [
        {
          "indexed": false,
          "internalType": "uint256",
          "name": "id",
          "type": "uint256"
        },
        {
          "indexed": false,
          "internalType": "address",
          "name": "buyer",
          "type": "address"
        }
      ],
      "name": "ModelPurchased",
      "type": "event"
    },
    {
      "inputs": [],
      "name": "modelCount",
      "outputs": [
        {
          "internalType": "uint256",
          "name": "",
          "type": "uint256"
        }
      ],
      "stateMutability": "view",
      "type": "function",
      "constant": true
    },
    {
      "inputs": [
        {
          "internalType": "uint256",
          "name": "",
          "type": "uint256"
        }
      ],
      "name": "models",
      "outputs": [
        {
          "internalType": "uint256",
          "name": "id",
          "type": "uint256"
        },
        {
          "internalType": "string",
          "name": "name",
          "type": "string"
        },
        {
          "internalType": "string",
          "name": "description",
          "type": "string"
        },
        {
          "internalType": "uint256",
          "name": "price",
          "type": "uint256"
        },
        {
          "internalType": "address payable",
          "name": "seller",
          "type": "address"
        },
        {
          "internalType": "bool",
          "name": "isSold",
          "type": "bool"
        }
      ],
      "stateMutability": "view",
      "type": "function",
      "constant": true
    },
    {
      "inputs": [
        {
          "internalType": "string",
          "name": "_name",
          "type": "string"
        },
        {
          "internalType": "string",
          "name": "_description",
          "type": "string"
        },
        {
          "internalType": "uint256",
          "name": "_price",
          "type": "uint256"
        }
      ],
      "name": "createModel",
      "outputs": [],
      "stateMutability": "nonpayable",
      "type": "function"
    },
    {
      "inputs": [
        {
          "internalType": "uint256",
          "name": "_id",
          "type": "uint256"
        }
      ],
      "name": "purchaseModel",
      "outputs": [],
      "stateMutability": "payable",
      "type": "function",
      "payable": true
    },
    {
      "inputs": [],
      "name": "getModels",
      "outputs": [
        {
          "components": [
            {
              "internalType": "uint256",
              "name": "id",
              "type": "uint256"
            },
            {
              "internalType": "string",
              "name": "name",
              "type": "string"
            },
            {
              "internalType": "string",
              "name": "description",
              "type": "string"
            },
            {
              "internalType": "uint256",
              "name": "price",
              "type": "uint256"
            },
            {
              "internalType": "address payable",
              "name": "seller",
              "type": "address"
            },
            {
              "internalType": "bool",
              "name": "isSold",
              "type": "bool"
            }
          ],
          "internalType": "struct Marketplace.Model[]",
          "name": "",
          "type": "tuple[]"
        }
      ],
      "stateMutability": "view",
      "type": "function",
      "constant": true
    }
  ],
  "bytecode": "0x608060405234801561001057600080fd5b50611098806100206000396000f3fe60806040526004361061004a5760003560e01c806309817d451461004f5780636a030ca91461007a5780639255e0bf146100bc578063c6a645fe146100e5578063dc74686214610110575b600080fd5b34801561005b57600080fd5b5061006461012c565b6040516100719190610c3a565b60405180910390f35b34801561008657600080fd5b506100a1600480360381019061009c919061099d565b610334565b6040516100b396959493929190610ce0565b60405180910390f35b3480156100c857600080fd5b506100e360048036038101906100de919061091e565b6104bd565b005b3480156100f157600080fd5b506100fa610643565b6040516101079190610c9c565b60405180910390f35b61012a6004803603810190610125919061099d565b610649565b005b60606000805480602002602001604051908101604052809291908181526020016000905b8282101561032b57838290600052602060002090600502016040518060c00160405290816000820154815260200160018201805461018d90610f32565b80601f01602080910402602001604051908101604052809291908181526020018280546101b990610f32565b80156102065780601f106101db57610100808354040283529160200191610206565b820191906000526020600020905b8154815290600101906020018083116101e957829003601f168201915b5050505050815260200160028201805461021f90610f32565b80601f016020809104026020016040519081016040528092919081815260200182805461024b90610f32565b80156102985780601f1061026d57610100808354040283529160200191610298565b820191906000526020600020905b81548152906001019060200180831161027b57829003601f168201915b50505050508152602001600382015481526020016004820160009054906101000a900473ffffffffffffffffffffffffffffffffffffffff1673ffffffffffffffffffffffffffffffffffffffff1673ffffffffffffffffffffffffffffffffffffffff1681526020016004820160149054906101000a900460ff16151515158152505081526020019060010190610150565b50505050905090565b6000818154811061034457600080fd5b906000526020600020906005020160009150905080600001549080600101805461036d90610f32565b80601f016020809104026020016040519081016040528092919081815260200182805461039990610f32565b80156103e65780601f106103bb576101008083540402835291602001916103e6565b820191906000526020600020905b8154815290600101906020018083116103c957829003601f168201915b5050505050908060020180546103fb90610f32565b80601f016020809104026020016040519081016040528092919081815260200182805461042790610f32565b80156104745780601f1061044957610100808354040283529160200191610474565b820191906000526020600020905b81548152906001019060200180831161045757829003601f168201915b5050505050908060030154908060040160009054906101000a900473ffffffffffffffffffffffffffffffffffffffff16908060040160149054906101000a900460ff16905086565b600160008154809291906104d090610f64565b919050555060006040518060c0016040528060015481526020018581526020018481526020018381526020013373ffffffffffffffffffffffffffffffffffffffff16815260200160001515815250908060018154018082558091505060019003906000526020600020906005020160009091909190915060008201518160000155602082015181600101908051906020019061056e9291906107fe565b50604082015181600201908051906020019061058b9291906107fe565b506060820151816003015560808201518160040160006101000a81548173ffffffffffffffffffffffffffffffffffffffff021916908373ffffffffffffffffffffffffffffffffffffffff16021790555060a08201518160040160146101000a81548160ff02191690831515021790555050507f60a3ea134751a6c2c658170e8b108b5e691673ccd5db9d7de58169a94584ca4d6001548483336040516106369493929190610d4f565b60405180910390a1505050565b60015481565b6000806001836106599190610e62565b81548110610690577f4e487b7100000000000000000000000000000000000000000000000000000000600052603260045260246000fd5b906000526020600020906005020190508060040160149054906101000a900460ff16156106f2576040517f08c379a00000000000000000000000000000000000000000000000000000000081526004016106e990610c5c565b60405180910390fd5b8060030154341015610739576040517f08c379a000000000000000000000000000000000000000000000000000000000815260040161073090610c7c565b60405180910390fd5b60018160040160146101000a81548160ff0219169083151502179055508060040160009054906101000a900473ffffffffffffffffffffffffffffffffffffffff1673ffffffffffffffffffffffffffffffffffffffff166108fc349081150290604051600060405180830381858888f193505050501580156107c0573d6000803e3d6000fd5b507fc8581808129c51c0416692a5ea1b58e080ae8f21e384eefe2f2dc85d231d12ba82336040516107f2929190610cb7565b60405180910390a15050565b82805461080a90610f32565b90600052602060002090601f01602090048101928261082c5760008555610873565b82601f1061084557805160ff1916838001178555610873565b82800160010185558215610873579182015b82811115610872578251825591602001919060010190610857565b5b5090506108809190610884565b5090565b5b8082111561089d576000816000905550600101610885565b5090565b60006108b46108af84610dcc565b610d9b565b9050828152602081018484840111156108cc57600080fd5b6108d7848285610ef0565b509392505050565b600082601f8301126108f057600080fd5b81356109008482602086016108a1565b91505092915050565b6000813590506109188161104b565b92915050565b60008060006060848603121561093357600080fd5b600084013567ffffffffffffffff81111561094d57600080fd5b610959868287016108df565b935050602084013567ffffffffffffffff81111561097657600080fd5b610982868287016108df565b925050604061099386828701610909565b9150509250925092565b6000602082840312156109af57600080fd5b60006109bd84828501610909565b91505092915050565b60006109d28383610b8c565b905092915050565b6109e381610ea8565b82525050565b6109f281610ea8565b82525050565b610a0181610e96565b82525050565b6000610a1282610e0c565b610a1c8185610e2f565b935083602082028501610a2e85610dfc565b8060005b85811015610a6a5784840389528151610a4b85826109c6565b9450610a5683610e22565b925060208a01995050600181019050610a32565b50829750879550505050505092915050565b610a8581610eba565b82525050565b610a9481610eba565b82525050565b6000610aa582610e17565b610aaf8185610e40565b9350610abf818560208601610eff565b610ac88161103a565b840191505092915050565b6000610ade82610e17565b610ae88185610e51565b9350610af8818560208601610eff565b610b018161103a565b840191505092915050565b6000610b19601583610e51565b91507f4d6f64656c20697320616c726561647920736f6c6400000000000000000000006000830152602082019050919050565b6000610b59601283610e51565b91507f496e73756666696369656e742066756e647300000000000000000000000000006000830152602082019050919050565b600060c083016000830151610ba46000860182610c1c565b5060208301518482036020860152610bbc8282610a9a565b91505060408301518482036040860152610bd68282610a9a565b9150506060830151610beb6060860182610c1c565b506080830151610bfe60808601826109da565b5060a0830151610c1160a0860182610a7c565b508091505092915050565b610c2581610ee6565b82525050565b610c3481610ee6565b82525050565b60006020820190508181036000830152610c548184610a07565b905092915050565b60006020820190508181036000830152610c7581610b0c565b9050919050565b60006020820190508181036000830152610c9581610b4c565b9050919050565b6000602082019050610cb16000830184610c2b565b92915050565b6000604082019050610ccc6000830185610c2b565b610cd960208301846109f8565b9392505050565b600060c082019050610cf56000830189610c2b565b8181036020830152610d078188610ad3565b90508181036040830152610d1b8187610ad3565b9050610d2a6060830186610c2b565b610d3760808301856109e9565b610d4460a0830184610a8b565b979650505050505050565b6000608082019050610d646000830187610c2b565b8181036020830152610d768186610ad3565b9050610d856040830185610c2b565b610d9260608301846109f8565b95945050505050565b6000604051905081810181811067ffffffffffffffff82111715610dc257610dc161100b565b5b8060405250919050565b600067ffffffffffffffff821115610de757610de661100b565b5b601f19601f8301169050602081019050919050565b6000819050602082019050919050565b600081519050919050565b600081519050919050565b6000602082019050919050565b600082825260208201905092915050565b600082825260208201905092915050565b600082825260208201905092915050565b6000610e6d82610ee6565b9150610e7883610ee6565b925082821015610e8b57610e8a610fad565b5b828203905092915050565b6000610ea182610ec6565b9050919050565b6000610eb382610ec6565b9050919050565b60008115159050919050565b600073ffffffffffffffffffffffffffffffffffffffff82169050919050565b6000819050919050565b82818337600083830152505050565b60005b83811015610f1d578082015181840152602081019050610f02565b83811115610f2c576000848401525b50505050565b60006002820490506001821680610f4a57607f821691505b60208210811415610f5e57610f5d610fdc565b5b50919050565b6000610f6f82610ee6565b91507fffffffffffffffffffffffffffffffffffffffffffffffffffffffffffffffff821415610fa257610fa1610fad565b5b600182019050919050565b7f4e487b7100000000000000000000000000000000000000000000000000000000600052601160045260246000fd5b7f4e487b7100000000000000000000000000000000000000000000000000000000600052602260045260246000fd5b7f4e487b7100000000000000000000000000000000000000000000000000000000600052604160045260246000fd5b6000601f19601f8301169050919050565b61105481610ee6565b811461105f57600080fd5b5056fea26469706673582212202ff1d27ee920b41aa86324a38da85dcd2b1b7f4a47e8b980872d324580850e7f64736f6c63430008000033",
  "immutableReferences": {},
  "source": "// SPDX-License-Identifier: MIT\npragma solidity ^0.8.0;\n\ncontract Marketplace {\n    struct Model {\n        uint id;\n        string name;\n        string description;\n        uint price;\n        address payable seller;\n        bool isSold;\n    }\n\n    Model[] public models;\n    uint public modelCount;\n\n    event ModelCreated(uint id, string name, uint price, address seller);\n    event ModelPurchased(uint id, address buyer);\n\n    function createModel(string memory _name, string memory _description, uint _price) public {\n        modelCount++;\n        models.push(Model(modelCount, _name, _description, _price, payable(msg.sender), false));\n        emit ModelCreated(modelCount, _name, _price, msg.sender);\n    }\n\n    function purchaseModel(uint _id) public payable {\n        Model storage model = models[_id - 1];\n        require(!model.isSold, \"Model is already sold\");\n        require(msg.value >= model.price, \"Insufficient funds\");\n\n        model.isSold = true;\n        model.seller.transfer(msg.value);\n        emit ModelPurchased(_id, msg.sender);\n    }\n\n    function getModels() public view returns (Model[] memory) {\n        return models;\n    }\n}",
  "sourcePath": "/Users/krohann/Desktop/AI Marketplace/backend/contracts/Marketplace.sol",
  "compiler": {
    "name": "solc",
    "version": "0.8.0+commit.c7dfd78e.Emscripten.clang"
  },
  "schemaVersion": "3.4.16",
  "updatedAt": "2025-03-21T09:56:20.031Z",
  "networkType": "ethereum",
  "devdoc": {
    "kind": "dev",
    "methods": {},
    "version": 1
  },
  "userdoc": {
    "kind": "user",
    "methods": {},
    "version": 1
  }
}